:100000000C94E3000C940B010C940B010C940B0169
:100010000C940B010C940B010C940B010C940B0130
:100020000C940B010C940B010C940B010C940B0120
:100030000C940B010C940B010C940B010C940B0110
:100040000C94A8060C940B010C947C090C94AE093A
:100050000C940B010C940B010C940B010C940B01F0
:100060000C940B010C940B01005EBCE2613FDD833C
:10007000C29C7E20A3FD1F419DC3217FFCA2401E88
:100080005F01E3BD3E6082DC237D9FC1421CFEA078
:10009000E1BF5D0380DE3C62BEE0025CDF81633D68
:1000A0007C22C09E1D43A1FF4618FAA427799BC558
:1000B00084DA3866E5BB5907DB856739BAE4065848
:1000C0001947A5FB7826C49A653BD987045AB8E638
:1000D000A7F91B45C6987A24F8A6441A99C7257B28
:1000E0003A6486D85B05E7B98CD2306EEDB3510F18
:1000F0004E10F2AC2F7193CD114FADF3702ECC9208
:10010000D38D6F31B2EC0E50AFF1134DCE90722CF7
:100110006D33D18F0C52B0EE326C8ED0530DEFB1E7
:10012000F0AE4C1291CF2D73CA947628ABF51749D7
:100130000856B4EA6937D58B5709EBB536688AD4C7
:1001400095CB2977F4AA4816E9B7550B88D6346AB7
:100150002B7597C94A14F6A8742AC896154BA9F7A7
:10016000B6E80A54D7896B35000000080002010088
:100170000003040700000000000000000102040862
:100180001020408001020408102001020408102001
:10019000040404040404040402020202020203032D
:1001A00003030303000000002300260029000000D1
:1001B0000000250028002B0000000000240027007C
:1001C0002A008B01DE0911241FBECFEFD8E0DEBF6D
:1001D000CDBF11E0A0E0B1E0E6EFFCE102C0059088
:1001E0000D92A634B107D9F722E0A6E4B1E001C030
:1001F0001D92AD30B207E1F711E0C6ECD1E004C0CA
:100200002297FE010E94750EC23CD107C9F70E94D9
:10021000220A0C94790E0C94000026E040E855E286
:1002200060E070E080E791E00E941A0986E491E0C6
:100230000E94BE0460E084E00C94D50761E071E0A8
:1002400080E791E00E946F0A0E94F206AB01BC01B8
:100250002AE030E080E791E00E94270B67E071E040
:1002600080E791E00E946F0A8EE00E948F074AE0CB
:1002700050E0BC0180E791E00E941F0B6FE071E04D
:1002800080E791E00E946F0A8FE00E948F074AE0AA
:1002900050E0BC0180E791E00E941F0B64E171E037
:1002A00080E791E00E946F0A80E10E948F074AE098
:1002B00050E0BC0180E791E00E941F0B69E171E012
:1002C00080E791E00E946F0A84E00E940E084AE0F5
:1002D00050E0BC0180E791E00E941F0B6EE171E0ED
:1002E00080E791E00E946F0A86E491E00E94900509
:1002F00060E086E491E00E948406AB01BC0122E04C
:1003000030E080E791E00E941F0C60E177E280E03E
:1003100090E00C94210762E089E591E00E94CF0211
:1003200069E571E086E491E00C949503FF920F93E8
:100330001F93CF93DF93FC010081C181D281F89498
:100340008981F02EF0948F21898378941DE71150D4
:1003500029F182E090E00E94490788818023B9F367
:10036000F8948A818F218A838981802B898378946C
:1003700080EE91E00E944907F89489818F2189835A
:1003800086E490E00E9449078881802311E009F00B
:1003900010E078948AE991E00E944907812FDF916B
:1003A000CF911F910F91FF9008951F93CF93DF93EB
:1003B000FC011081C181D281912F909560FF12C004
:1003C000F8948A8189238A838981812B89838AE0B1
:1003D00090E00E9449078A81812B8A83789487E381
:1003E00090E011C0F8948A8189238A838981812BC6
:1003F000898381E490E00E9449078A81812B8A8366
:10040000789485E090E0DF91CF911F910C9449079B
:100410000F931F93CF93DF93FC011081C181D28191
:10042000F8948981812B89838A81012F009580230B
:100430008A8383E090E00E94490789818023898331
:100440008AE090E00E944907C881789485E390E0B3
:100450000E9449071C2381E009F480E0DF91CF91DD
:100460001F910F910895CF92DF92EF92FF920F9319
:100470001F93CF93DF931F92CDB7DEB76C01E62EAB
:1004800008E010E0FF24F39461E09F2D9E2109F421
:1004900060E0C60149830E94D501FF0C015011099B
:1004A00049810115110581F7411115C0F894D60154
:1004B0001196ED91FC91129791818C9180958923F1
:1004C00081831196ED91FC91129792818C91809588
:1004D0008923828378940F90DF91CF911F910F91A0
:1004E000FF90EF90DF90CF900895EF92FF920F93DF
:1004F0001F93CF93DF938C01C8E0D0E0F12CEE2462
:10050000E394C8010E9408028111FE28EE0C219795
:10051000C1F78F2DDF91CF911F910F91FF90EF9039
:100520000895CF92DF92FF920F931F93CF93DF93A3
:100530001F92CDB7DEB78C01F62E40E065E57983DA
:100540000E943302CF2C7981D72E88E0F82EF60155
:1005500061916F0140E0C8010E943302FA94B9F73B
:100560000F90DF91CF911F910F91FF90DF90CF906F
:10057000089540E06CEC0C943302FC011386158660
:10058000148627E030E0DF01A20FB31F13961C9200
:100590002115310519F021503109F5CF08951F9328
:1005A000CF93DF93EC01162F60E0812F0E94D507D7
:1005B000612F70E0FB01E458FE4FE491E883FB01FA
:1005C000E057FE4FE491F0E0EE0FFF1FEC55FE4FB9
:1005D000859194919A838983CE01DF91CF911F9168
:1005E0000C94BD02AF92BF92CF92DF92EF92FF9236
:1005F0000F931F93CF93DF931F92CDB7DEB75C01AC
:10060000D62EE72EFC01858581115DC0C5010E94B3
:100610009601811105C0F5011386158614866CC0FC
:1006200040E060EFC5010E94330201E0F12CC12CD3
:1006300011E0C5010E940802682FC50169830E946C
:1006400008026981613019F48130B9F433C02F2D6B
:1006500030E068131BC0F5018385181730F4E20FF2
:10066000F31F8381802349F402C0181731F060E042
:10067000193058F4F501148708C0F501EF0DF11D8C
:100680008381802B838361E009C0C12EF501E20FD5
:10069000F31F8381902F909589238383C5010E9446
:1006A000D5011F5F000F11F4F39401E0F7E0FF158F
:1006B00008F0BFCF113438F0F501C386C11009C06E
:1006C00081E0858706C0F50113861586148680E0D3
:1006D00013C0F50183818823B1F3ED2DFE2D80E059
:1006E00090E0D501A80FB91F13962C912193019684
:1006F00088309105B1F781E00F90DF91CF911F9184
:100700000F91FF90EF90DF90CF90BF90AF90089542
:10071000DC0180E0615038F0ED91E827F0E0E85925
:10072000FF4F8491F7CF08950895FC0184E993E089
:10073000928B818B768365831482108289E081831A
:1007400081E0828383830895CF93DF93EB0167E099
:10075000CE010E94880391E02F81821390E0892FBF
:10076000DF91CF910895EF92FF920F931F93CF9354
:10077000DF93EC018B01E42E8D819E810E94BD02EE
:10078000F12CB8018D819E810E94F202882359F0DC
:10079000FE1006C0B801CE010E94A403811104C05E
:1007A000F394EF1470F780E0DF91CF911F910F91D8
:1007B000FF90EF900895EF92FF920F931F93CF93C6
:1007C000DF9300D0CDB7DEB77C018A01FC018581C3
:1007D000968169837A830E94960169817A81F70103
:1007E000858196810E94910240E06EEBF701858140
:1007F00096810E943302F701858196810E947502DD
:10080000F8018083F701858196810E947502F801C5
:100810008183F701858196810E947502F8018283A8
:10082000F701858196810E947502F8018383F701A3
:10083000858196810E947502F8018483F701858184
:1008400096810E947502F8018583F7018581968162
:100850000E947502F8018683F701858196810E94C6
:100860007502F8018783F701858196810E947502E0
:10087000F8018087F701858196810F900F90DF91B5
:10088000CF911F910F91FF90EF900C949601CF9311
:10089000DF93EA010E94DB0368E0CE010E94880337
:1008A00091E02885821390E0892FDF91CF91089500
:1008B000EF92FF921F93CF93DF9300D0CDB7DEB7B7
:1008C0007C01FC018581968169837A830E9496016F
:1008D00069817A81F701858196810E94910240E0C9
:1008E00064EBF701858196810E943302F7018581CF
:1008F00096810E940802182FF701858196810E9437
:10090000960181E0111180E00F900F90DF91CF915F
:100910001F91FF90EF900895CF93DF93CDB7DEB78F
:1009200029970FB6F894DEBF0FBECDBFFB01208123
:100930002031D1F0AE014F5F5F4F0E944704882302
:1009400079F08D818F3351F018F48F3169F008C040
:100950008F3541F08F3721F48CE007C08AE005C065
:1009600080E003C08BE001C089E029960FB6F894BF
:10097000DEBF0FBECDBFDF91CF910895EF92FF9202
:100980000F931F93CF93DF93CDB7DEB761970FB669
:10099000F894DEBF0FBECDBF8C01FC01858196812E
:1009A0000E94BD02F8011482FF24F394BE01665F29
:1009B0007F4FF801858196810E94F2028823C9F158
:1009C000BE01665F7F4FC8010E94A403882371F3B4
:1009D000F8018081811108C0BE01665F7F4FC801A8
:1009E0000E945804811122C0AE014F5F5F4FBE01CB
:1009F000665F7F4FC8010E94DB03F801E180BE0102
:100A0000665F7F4FC8010E948C048E1518F4F801B0
:100A1000818106C0BE01665F7F4FC8010E948C04C1
:100A2000F801818384818F5F8483C0CFF801F082D5
:100A3000DBCF61960FB6F894DEBF0FBECDBFDF915E
:100A4000CF911F910F91FF90EF900895CF93DF9377
:100A5000CDB7DEB729970FB6F894DEBF0FBECDBF76
:100A6000AE014F5F5F4F0E94DB0381E099819111DE
:100A700001C080E029960FB6F894DEBF0FBECDBF4F
:100A8000DF91CF910895CF92DF92EF92FF920F9373
:100A90001F93CF93DF93EC018B01452BE1F08B810A
:100AA0008823C9F08881811116C00E94F2066B016B
:100AB0007C0160E070E0CE010E94260581110BC030
:100AC0000E94F2066C197D098E099F096E3E7240E4
:100AD0008105910570F3F80180818A3049F08B30EF
:100AE00061F0893079F46EE570E080E090E00EC04E
:100AF0006CEB70E080E090E009C067E771E080E0B7
:100B000090E004C06EEE72E080E090E0DF91CF9163
:100B10001F910F91FF90EF90DF90CF900C942107E1
:100B2000CF93DF93EC018D819E810E9496018D8190
:100B30009E810E94B902488164E48D819E810E9459
:100B400033028A81882351F0BE016F5F7F4F40E0FE
:100B500050E0CE01DF91CF910C944305DF91CF910E
:100B600008958F929F92AF92BF92CF92DF92EF92B1
:100B7000FF921F93CF93DF93FB01EA01698170E03D
:100B8000762F66278881682B80818232B1F1883286
:100B9000A1F1803109F078C01F817595679588278C
:100BA00077FD8095982F0E94360D20E030E040E8D8
:100BB0005EE30E94320C6B017C01612F70E08E813C
:100BC000681B7109882777FD8095982F0E94360D44
:100BD0004B015C01612F70E080E090E00E94340DD9
:100BE0009B01AC01C501B4010E949B0C9B01AC01AF
:100BF000C701B6010E94330C43C08C818F3381F151
:100C000098F48F3109F040C093E0759567959A95F7
:100C1000E1F7882777FD8095982F0E94360D20E018
:100C200030E040E05FE32AC08F3569F08F3761F52F
:100C3000882777FD8095982F0E94360D20E030E0C0
:100C400040E85DE31BC075956795882777FD809523
:100C5000982F0E94360D20E030E040E05EE30EC0A9
:100C60007595679575956795882777FD8095982F79
:100C70000E94360D20E030E040E85EE30E94EA0D7D
:100C8000562F472F382F292F652F742F832F922F00
:100C9000DF91CF911F91FF90EF90DF90CF90BF90A9
:100CA000AF909F908F900895EF92FF920F931F93B4
:100CB000CF93DF93CDB7DEB729970FB6F894DEBF99
:100CC0000FBECDBF8C017B01AE014F5F5F4F0E9415
:100CD0004704882341F0AE014F5F5F4FB701C80161
:100CE0000E94B10504C060E070E08EEF92EC29969E
:100CF0000FB6F894DEBF0FBECDBFDF91CF911F912D
:100D00000F91FF90EF9008950F931F93CF93DF9370
:100D1000CDB7DEB728970FB6F894DEBF0FBECDBFB4
:100D20008C01462FBE016F5F7F4F0E94B303BE014F
:100D30006F5F7F4FC8010E94540628960FB6F89443
:100D4000DEBF0FBECDBFDF91CF911F910F910895F0
:100D50001F920F920FB60F9211242F933F938F93F0
:100D60009F93AF93BF938091680190916901A09187
:100D70006A01B0916B013091670123E0230F2D3799
:100D800020F40196A11DB11D05C026E8230F02968F
:100D9000A11DB11D209367018093680190936901A3
:100DA000A0936A01B0936B0180916C0190916D01E9
:100DB000A0916E01B0916F010196A11DB11D8093AC
:100DC0006C0190936D01A0936E01B0936F01BF9180
:100DD000AF919F918F913F912F910F900FBE0F90E8
:100DE0001F9018952FB7F894609168017091690170
:100DF00080916A0190916B012FBF08953FB7F894DD
:100E000080916C0190916D01A0916E01B0916F0184
:100E100026B5A89B05C02F3F19F00196A11DB11D55
:100E20003FBF6627782F892F9A2F620F711D811D72
:100E3000911D42E0660F771F881F991F4A95D1F7D1
:100E40000895CF92DF92EF92FF92CF93DF936B01E1
:100E50007C010E94FE06EB01C114D104E104F104FF
:100E600089F00E94310C0E94FE066C1B7D0B683ECF
:100E7000734090F381E0C81AD108E108F108C85125
:100E8000DC4FEACFDF91CF91FF90EF90DF90CF90D2
:100E900008958230910538F0880F991F880F991FA7
:100EA00005970197F1F70895789484B5826084BD21
:100EB00084B5816084BD85B5826085BD85B581605E
:100EC00085BDEEE6F0E0808181608083E1E8F0E0BE
:100ED0001082808182608083808181608083E0E8ED
:100EE000F0E0808181608083E1EBF0E080818460CC
:100EF0008083E0EBF0E0808181608083EAE7F0E0CE
:100F00008081846080838081826080838081816031
:100F100080838081806880831092C10008958E3024
:100F200008F08E5087702091000190E4299F900175
:100F30001124822B80937C0080917A0080648093BE
:100F40007A0080917A0086FDFCCF80917800209114
:100F5000790090E0922B0895833081F028F481305D
:100F600099F08230A1F008958730A9F08830B9F067
:100F70008430D1F4809180008F7D03C08091800007
:100F80008F7780938000089584B58F7702C084B5F1
:100F90008F7D84BD08958091B0008F7703C08091CC
:100FA000B0008F7D8093B0000895CF93DF9390E0E1
:100FB000FC01E458FE4F2491FC01E057FE4F849160
:100FC000882349F190E0880F991FFC01E854FE4FF7
:100FD000A591B49182559E4FFC01C591D4919FB7C4
:100FE000611108C0F8948C91209582238C9388819C
:100FF00082230AC0623051F4F8948C91322F3095DC
:1010000083238C938881822B888304C0F8948C91ED
:10101000822B8C939FBFDF91CF910895CF93DF9365
:10102000282F30E0F901E859FE4F8491F901E45886
:10103000FE4FD491F901E057FE4FC491CC2391F0BB
:1010400081110E94AC07EC2FF0E0EE0FFF1FEC5572
:10105000FE4FA591B4912C912D2381E090E021F4D5
:1010600080E002C080E090E0DF91CF910895FC0124
:10107000818D228D90E0805C9F4F821B91098F7340
:1010800099270895FC01918D828D981731F0828DFA
:10109000E80FF11D858D90E008958FEF9FEF089583
:1010A000FC01918D828D981761F0828DDF01A80F70
:1010B000B11D5D968C91928D9F5F9F73928F90E092
:1010C00008958FEF9FEF089584ED99E0892B49F003
:1010D00080E090E0892B29F00E94D40981110C94C2
:1010E00000000895FC01848DDF01A80FB11DA35AF3
:1010F000BF4F2C91848D90E001968F739927848F38
:10110000A689B7892C93A089B1898C9180648C932E
:10111000938D848D981306C00288F389E02D808119
:101120008F7D80830895CF93DF93EC01888D882392
:10113000C9F0EA89FB89808185FD05C0A889B98944
:101140008C9186FD0FC00FB607FCF5CF808185FF1F
:10115000F2CFA889B9898C9185FFEDCFCE010E948D
:101160007208E7CFDF91CF910895CF92DF92FF927F
:101170000F931F93CF93DF931F92CDB7DEB76C0110
:1011800081E0D60158968C9358975B969C915B971B
:101190005C968C915C97981307C05096ED91FC91EA
:1011A0005197808185FD2EC0F601038D10E00F5F01
:1011B0001F4F0F731127F02EF601848DF81211C006
:1011C0000FB607FCF9CFD6015096ED91FC915197DF
:1011D000808185FFF1CFC60169830E947208698111
:1011E000EBCF838DE80FF11DE35AFF4F6083D601EB
:1011F0005B960C935B975296ED91FC91539780818F
:1012000080620CC0D6015696ED91FC915797608391
:101210005096ED91FC91519780818064808381E0AC
:1012200090E00F90DF91CF911F910F91FF90DF9091
:10123000CF900895BF92CF92DF92EF92FF92CF931B
:10124000DF93EC016A017B01B22EE889F98982E023
:101250008083411581EE580761057105A1F060E0BA
:1012600079E08DE390E0A70196010E94510E215094
:10127000310941095109569547953795279521150B
:1012800080E1380798F0E889F989108260E874E80D
:101290008EE190E0A70196010E94510E2150310984
:1012A000410951095695479537952795EC85FD8558
:1012B0003083EE85FF852083188EEC89FD89B0820E
:1012C000EA89FB89808180618083EA89FB8980814A
:1012D00088608083EA89FB89808180688083EA89CD
:1012E000FB8980818F7D8083DF91CF91FF90EF908C
:1012F000DF90CF90BF9008951F920F920FB60F927C
:1013000011242F938F939F93EF93FF93E09180018C
:10131000F09181018081E0918601F091870182FD49
:1013200012C09081809189018F5F8F7320918A0113
:10133000821751F0E0918901F0E0E059FE4F958F5E
:101340008093890101C08081FF91EF919F918F91DE
:101350002F910F900FBE0F901F9018951F920F9214
:101360000FB60F9211242F933F934F935F936F9378
:101370007F938F939F93AF93BF93EF93FF9380E7F8
:1013800091E00E947208FF91EF91BF91AF919F9100
:101390008F917F916F915F914F913F912F910F901E
:1013A0000FBE0F901F90189580E791E00E943708BC
:1013B00021E0892B09F420E0822F08951092730117
:1013C0001092720188EE93E0A0E0B0E08093740187
:1013D00090937501A0937601B093770189E291E033
:1013E000909371018093700185EC90E090937D0162
:1013F00080937C0184EC90E090937F0180937E0148
:1014000080EC90E0909381018093800181EC90E0EA
:10141000909383018093820182EC90E09093850108
:101420008093840186EC90E09093870180938601FD
:101430001092890110928A0110928B0110928C01F6
:10144000089508950E9454070E94210A0E940D01E8
:10145000C4E6D8E00E941E012097E1F30E946408D0
:10146000F9CFCF92DF92EF92FF920F931F93CF931A
:10147000DF936C017A01EB01E60EF71E00E010E04D
:10148000CE15DF0561F06991D601ED91FC910190D7
:10149000F081E02DC6010995080F191FF1CFC80191
:1014A000DF91CF911F910F91FF90EF90DF90CF9040
:1014B00008956115710581F0DB010D900020E9F7B9
:1014C000AD0141505109461B570BDC01ED91FC91D8
:1014D0000280F381E02D099480E090E008950C945F
:1014E000590ADC01ED91FC910190F081E02D099405
:1014F00065E371E00C94590A8F929F92AF92BF926C
:10150000CF92DF92EF92FF920F931F93CF93DF93CF
:10151000CDB7DEB7A1970FB6F894DEBF0FBECDBF33
:101520007C01C42EE52FCB01D22E19A221E02D156E
:1015300010F02AE0D22E8E010F5D1F4F8D2C912CC2
:10154000A12CB12C6C2D7E2FA50194010E94510E6F
:101550008C2DD29E80191124015011098A3014F467
:10156000805D01C0895CF80180832115310541054A
:10157000510521F0C22EE32FCA01E4CFB801C70103
:101580000E94590AA1960FB6F894DEBF0FBECDBFD8
:10159000DF91CF911F910F91FF90EF90DF90CF904F
:1015A000BF90AF909F908F900895CF92DF92EF926F
:1015B000FF920F931F93CF93DF93EC016A017B019E
:1015C0002115310579F4E881F9810190F081E02D50
:1015D000642FDF91CF911F910F91FF90EF90DF90DB
:1015E000CF9009942A303105E9F477FF1AC06DE2F3
:1015F0000E94710A8C0144275527BA014C195D09D4
:101600006E097F092AE0CE010E947C0A800F911F9B
:10161000DF91CF911F910F91FF90EF90DF90CF90CE
:1016200008952AE0B701A601CE01DF91CF911F9165
:101630000F91FF90EF90DF90CF900C947C0A9A016D
:10164000AB01662757FD6095762F0C94D50A2115BE
:10165000310541F4DC01ED91FC910190F081E02D28
:10166000642F09940C947C0A4F925F926F927F9240
:101670008F929F92AF92BF92CF92DF92EF92FF92A2
:101680000F931F93CF93DF93EC016A017B01B22E7E
:101690009A01AB01C701B6010E944D0E882319F0D3
:1016A00068E371E027C026013701E89477F82FEF4F
:1016B0003FEF4FE75FE7C301B2010E944D0E81117A
:1016C0000DC02FEF3FEF4FE75FE7C301B2010E946C
:1016D000970C18161CF46CE371E00CC02FEF3FEF71
:1016E0004FE75FE4C701B6010E94E60D1816ACF49F
:1016F00060E471E0CE01DF91CF911F910F91FF90D7
:10170000EF90DF90CF90BF90AF909F908F907F90A1
:101710006F905F904F900C94590A2FEF3FEF4FE777
:101720005FECC701B6010E94970C87FDE1CF20E076
:1017300030E0A901C701B6010E94970C87FF0AC0DB
:101740006DE2CE010E94710A8C01F7FAF094F7F86D
:10175000F09402C000E010E0A12C60E070E080E0B6
:101760009FE3AB1441F020E030E040E251E40E94FE
:101770009B0CA394F6CF9B01AC01C701B6010E945C
:10178000330C6B017C010E94080D2B013C010E946F
:10179000340D9B01AC01C701B6010E94320C6B01F4
:1017A0007C012AE0B301A201CE010E947C0A080F4D
:1017B000191FBB2039F064E471E0CE010E94590A80
:1017C000080F191F7B2C772041F120E030E040E228
:1017D00051E4C701B6010E94EA0D6B017C010E9431
:1017E000030D4B01AA2497FCA094BA2C2AE030E008
:1017F000B501A401CE010E94D50A080F191FC50129
:10180000B4010E94360D9B01AC01C701B6010E94D4
:10181000320C6B017C017A94D6CFC801DF91CF9155
:101820001F910F91FF90EF90DF90CF90BF90AF90FE
:101830009F908F907F906F905F904F9008950F933F
:101840001F93CF93DF93EC010E94340B8C01CE01E8
:101850000E94780A800F911FDF91CF911F910F9105
:10186000089508955058BB27AA270ED075C166D198
:1018700030F06BD120F031F49F3F11F41EF45BC1C6
:101880000EF4E095E7FB51C1E92F77D180F3BA1749
:10189000620773078407950718F071F49EF58FC1EE
:1018A0000EF4E0950B2EBA2FA02D0B01B90190017B
:1018B0000C01CA01A0011124FF27591B99F0593FBF
:1018C00050F4503E68F11A16F040A22F232F342F07
:1018D0004427585FF3CF469537952795A795F04055
:1018E0005395C9F77EF41F16BA0B620B730B840B6A
:1018F000BAF09150A1F0FF0FBB1F661F771F881F22
:10190000C2F70EC0BA0F621F731F841F48F4879579
:1019100077956795B795F7959E3F08F0B3CF939568
:10192000880F08F09927EE0F979587950895D9D0DD
:1019300008F481E008950CD00FC107D140F0FED02B
:1019400030F021F45F3F19F0F0C0511139C1F3C0FC
:1019500014D198F39923C9F35523B1F3951B550B73
:10196000BB27AA2762177307840738F09F5F5F4F72
:10197000220F331F441FAA1FA9F333D00E2E3AF0B3
:10198000E0E830D091505040E695001CCAF729D0CD
:10199000FE2F27D0660F771F881FBB1F261737071C
:1019A0004807AB07B0E809F0BB0B802DBF01FF274C
:1019B00093585F4F2AF09E3F510568F0B6C000C1B2
:1019C0005F3FECF3983EDCF3869577956795B79586
:1019D000F7959F5FC9F7880F911D9695879597F9A1
:1019E0000895E1E0660F771F881FBB1F621773071A
:1019F0008407BA0720F0621B730B840BBA0BEE1F2F
:101A000088F7E095089504D06894B111D9C008957D
:101A1000BCD088F09F5790F0B92F9927B751A0F00C
:101A2000D1F0660F771F881F991F1AF0BA95C9F772
:101A300012C0B13081F0C3D0B1E00895C0C0672FAB
:101A4000782F8827B85F39F0B93FCCF38695779522
:101A50006795B395D9F73EF490958095709561950B
:101A60007F4F8F4F9F4F0895E89409C097FB3EF436
:101A700090958095709561957F4F8F4F9F4F9923DB
:101A8000A9F0F92F96E9BB279395F6958795779559
:101A90006795B795F111F8CFFAF4BB0F11F460FF19
:101AA0001BC06F5F7F4F8F4F9F4F16C0882311F071
:101AB00096E911C0772321F09EE8872F762F05C085
:101AC000662371F096E8862F70E060E02AF09A9520
:101AD000660F771F881FDAF7880F9695879597F915
:101AE0000895990F0008550FAA0BE0E8FEEF1616AF
:101AF0001706E807F907C0F012161306E407F50702
:101B000098F0621B730B840B950B39F40A2661F075
:101B1000232B242B252B21F408950A2609F4A14018
:101B2000A6958FEF811D811D089597F99F6780E825
:101B300070E060E008959FEF80EC089500240A941F
:101B40001616170618060906089500240A94121698
:101B50001306140605060895092E0394000C11F4CB
:101B6000882352F0BB0F40F4BF2B11F460FF04C078
:101B70006F5F7F4F8F4F9F4F089557FD9058440FD1
:101B8000551F59F05F3F71F04795880F97FB991FDC
:101B900061F09F3F79F08795089512161306140699
:101BA000551FF2CF4695F1DF08C016161706180626
:101BB000991FF1CF86957105610508940895E89401
:101BC000BB2766277727CB0197F908958ADF08F4AA
:101BD0008FEF08950BD0C0CFB1DF28F0B6DF18F03B
:101BE000952309F0A2CFA7CF1124EACFC6DFA0F337
:101BF000959FD1F3950F50E0551F629FF001729FA2
:101C0000BB27F00DB11D639FAA27F00DB11DAA1FC0
:101C1000649F6627B00DA11D661F829F2227B00D0D
:101C2000A11D621F739FB00DA11D621F839FA00D98
:101C3000611D221F749F3327A00D611D231F849FE8
:101C4000600D211D822F762F6A2F11249F5750403F
:101C50008AF0E1F088234AF0EE0FFF1FBB1F661FDA
:101C6000771F881F91505040A9F79E3F510570F093
:101C70005CCFA6CF5F3FECF3983EDCF3869577957B
:101C80006795B795F795E7959F5FC1F7FE2B880F8E
:101C9000911D9695879597F9089523DF880B990BE9
:101CA0000895A1E21A2EAA1BBB1BFD010DC0AA1F9D
:101CB000BB1FEE1FFF1FA217B307E407F50720F0B5
:101CC000A21BB30BE40BF50B661F771F881F991F30
:101CD0001A9469F760957095809590959B01AC0179
:101CE000BD01CF010895EE0FFF1F0590F491E02D87
:061CF0000994F894FFCFF7
:101CF600014441544140002D2D2D3E41303D002CE4
:101D060041313D002C41323D002C44303D002C54E5
:101D1600454D503D0000000000B508310A37085017
:101D260008420893080D0A006E616E00696E66002F
:061D36006F7666002E002E
:00000001FF
